:100000000C942A000C943F000C943F000C943F0089
:100010000C943F000C943F000C943F000C943F0064
:100020000C943F000C943F000C943F000C943F0054
:100030000C943F000C943F000C943F000C943F0044
:100040000C943F000C943F000C943F000C943F0034
:100050000C943F0011241FBECFE5D8E0DEBFCDBF1A
:1000600010E0A0E6B0E0EEE7F4E002C005900D92EB
:10007000AA37B107D9F70E9441000C943D020C94B5
:1000800000000E943D010E9450010E94A3010E94B5
:100090005801811107C00E94390280E690E00E9459
:1000A0002C02F5CF0E944C010E94390281E790E0BA
:1000B0000E942C02ECCF442319F04130C9F108957D
:1000C000813091F028F08230D9F0833029F1089501
:1000D0002AB381E090E002C0880F991F6A95E2F789
:1000E000809582238ABB089527B381E090E002C007
:1000F000880F991F6A95E2F78095822387BB089540
:1001000024B381E090E002C0880F991F6A95E2F75E
:100110008095822384BB089521B381E090E002C0E2
:10012000880F991F6A95E2F78095822381BB089515
:10013000813089F028F08230C9F0833011F10895C0
:100140002AB381E090E002C0880F991F6A95E2F718
:10015000822B8ABB089527B381E090E002C0880F0C
:10016000991F6A95E2F7822B87BB089524B381E03B
:1001700090E002C0880F991F6A95E2F7822B84BB3A
:10018000089521B381E090E002C0880F991F6A951D
:10019000E2F7822B81BB0895442319F04130C9F165
:1001A0000895813091F028F08230D9F0833029F120
:1001B00008952BB381E090E002C0880F991F6A95E3
:1001C000E2F7809582238BBB089528B381E090E00D
:1001D00002C0880F991F6A95E2F78095822388BB39
:1001E000089525B381E090E002C0880F991F6A95B9
:1001F000E2F78095822385BB089522B381E090E0E9
:1002000002C0880F991F6A95E2F78095822382BB0E
:100210000895813089F028F08230C9F0833011F1DF
:1002200008952BB381E090E002C0880F991F6A9572
:10023000E2F7822B8BBB089528B381E090E002C0E7
:10024000880F991F6A95E2F7822B88BB089525B322
:1002500081E090E002C0880F991F6A95E2F7822B37
:1002600085BB089522B381E090E002C0880F991FFA
:100270006A95E2F7822B82BB089587B3806287BBC1
:1002800087B38F7B87BB87B3806887BB87B3806169
:1002900087BB83E58DB908958FB9779BFECF08950D
:1002A00088E18AB986E880BD87E689B910BC0895DF
:1002B0005F9BFECF8CB10895CF93C82F40E061E0E3
:1002C00081E00E94CC0040E062E081E00E94CC002E
:1002D00040E063E081E00E94CC008BB39C2F907FD4
:1002E0008F70892B8BBB41E063E081E00E94CC00E2
:1002F0008FE99FE00197F1F700C0000040E063E064
:1003000081E00E94CC0020E1C29FC00111249BB378
:100310009F70892B8BBB41E063E081E00E94CC00A1
:100320008FE99FE00197F1F700C0000040E063E033
:1003300081E00E94CC008FE39FE10197F1F700C0BC
:100340000000CF91089541E061E081E00E945B00F0
:1003500041E062E081E00E945B0041E063E081E017
:100360000E945B0041E064E080E00E945B0041E0AD
:1003700065E080E00E945B0041E066E080E00E9472
:100380005B0041E067E080E00E945B002FEF81EEC0
:1003900094E0215080409040E1F700C0000082E0EE
:1003A0000E945C0183E30E945C0182E30E945C0185
:1003B00088E20E945C018CE00E945C0181E00E9466
:1003C0005C0186E00E945C010895CF93C82F41E054
:1003D00061E081E00E94CC0040E062E081E00E94A8
:1003E000CC0040E063E081E00E94CC008BB39C2F06
:1003F000907F8F70892B8BBB41E063E081E00E948E
:10040000CC008FE99FE00197F1F700C0000040E0C9
:1004100063E081E00E94CC0020E1C29FC001112472
:100420009BB39F70892B8BBB41E063E081E00E940E
:10043000CC008FE99FE00197F1F700C0000040E099
:1004400063E081E00E94CC008FE39FE10197F1F728
:1004500000C00000CF910895CF93DF93EC0103C05B
:100460000E94E501219688818111FACFDF91CF9119
:0E047000089581E00E945C010895F894FFCF8A
:10047E004E6F2044617461207472616E7366657292
:0A048E000044617461204F4B000030
:00000001FF
