S01A000046696E616C50726F6A6563745F536C6176652E73726563EF
S11300000C942A000C943F000C943F000C943F0085
S11300100C943F000C943F000C943F000C943F0060
S11300200C943F000C943F000C943F000C943F0050
S11300300C943F000C943F000C943F000C943F0040
S11300400C943F000C943F000C943F000C943F0030
S11300500C943F0011241FBECFE5D8E0DEBFCDBF16
S113006010E0A0E6B0E0E4E7F5E002C005900D92F0
S1130070A637B107D9F70E9441000C94B8020C943A
S113008000000E9498010E94F2010E948C020E94CA
S113009097020E949D020E94AD020E94A701813333
S11300A081F018F4882331F0F8CF8233A9F0833338
S11300B0F1F0F3CF0E94880280E690E00E947B0278
S11300C0ECCF0E94880288E690E00E947B020E94A6
S11300D092020E94B302E1CF0E94880288E690E077
S11300E00E947B020E94A3020E94B302D6CF0E9408
S11300F0880288E690E00E947B020E94A8020E9487
S1130100B302CBCF442319F04130C9F108958130B3
S113011091F028F08230D9F0833029F108952AB380
S113012081E090E002C0880F991F6A95E2F78095FC
S113013082238ABB089527B381E090E002C0880F30
S1130140991F6A95E2F78095822387BB089524B3AB
S113015081E090E002C0880F991F6A95E2F78095CC
S1130160822384BB089521B381E090E002C0880F0C
S1130170991F6A95E2F78095822381BB08958130A7
S113018089F028F08230C9F0833011F108952AB340
S113019081E090E002C0880F991F6A95E2F7822BF4
S11301A08ABB089527B381E090E002C0880F991FAD
S11301B06A95E2F7822B87BB089524B381E090E02F
S11301C002C0880F991F6A95E2F7822B84BB0895B9
S11301D021B381E090E002C0880F991F6A95E2F78D
S11301E0822B81BB0895442319F04130C9F108954D
S11301F0813091F028F08230D9F0833029F10895CC
S11302002BB381E090E002C0880F991F6A95E2F752
S1130210809582238BBB089528B381E090E002C0CF
S1130220880F991F6A95E2F78095822388BB089509
S113023025B381E090E002C0880F991F6A95E2F728
S11302408095822385BB089522B381E090E002C0AB
S1130250880F991F6A95E2F78095822382BB0895DF
S1130260813089F028F08230C9F0833011F108958B
S11302702BB381E090E002C0880F991F6A95E2F7E2
S1130280822B8BBB089528B381E090E002C0880FD5
S1130290991F6A95E2F7822B88BB089525B381E004
S11302A090E002C0880F991F6A95E2F7822B85BB04
S11302B0089522B381E090E002C0880F991F6A95E7
S11302C0E2F7822B82BB0895813089F028F08230D6
S11302D0C9F0833011F108952BB381E090E002C09E
S11302E0880F991F6A95E2F782278BBB089528B37C
S11302F081E090E002C0880F991F6A95E2F7822797
S113030088BB089525B381E090E002C0880F991F4F
S11303106A95E2F7822785BB089522B381E090E0D5
S113032002C0880F991F6A95E2F7822782BB08955D
S113033087B3806287BB87B38F7B87BB87B38068B3
S113034087BB87B3806187BB83E58DB90895779BAD
S1130350FECF8FB10895CF93C82F40E061E081E0D4
S11303600E94F30040E062E081E00E94F30040E07C
S113037063E081E00E94F3008BB39C2F907F8F7029
S1130380892B8BBB41E063E081E00E94F3008FE99D
S11303909FE00197F1F700C0000040E063E081E0D6
S11303A00E94F30020E1C29FC00111249BB39F70FF
S11303B0892B8BBB41E063E081E00E94F3008FE96D
S11303C09FE00197F1F700C0000040E063E081E0A6
S11303D00E94F3008FE39FE10197F1F700C0000052
S11303E0CF91089541E061E081E00E94820041E004
S11303F062E081E00E94820041E063E081E00E94CB
S1130400820041E064E080E00E94820041E065E017
S113041080E00E94820041E066E080E00E94820069
S113042041E067E080E00E9482002FEF81EE94E0DB
S1130430215080409040E1F700C0000082E00E941B
S1130440AB0183E30E94AB0182E30E94AB0188E22B
S11304500E94AB018CE00E94AB0181E00E94AB01E1
S113046086E00E94AB010895CF93C82F41E061E07C
S113047081E00E94F30040E062E081E00E94F3002A
S113048040E063E081E00E94F3008BB39C2F907FF7
S11304908F70892B8BBB41E063E081E00E94F30005
S11304A08FE99FE00197F1F700C0000040E063E0AE
S11304B081E00E94F30020E1C29FC00111249BB39C
S11304C09F70892B8BBB41E063E081E00E94F300C5
S11304D08FE99FE00197F1F700C0000040E063E07E
S11304E081E00E94F3008FE39FE10197F1F700C0E0
S11304F00000CF910895CF93DF93EC0103C00E94D5
S11305003402219688818111FACFDF91CF91089529
S113051081E00E94AB01089541E062E082E00E9424
S11305208200089562E082E00E946401089541E03F
S113053067E082E00E948200089541E063E083E086
S11305400E948200089567E082E00E946401089599
S113055063E083E00E946401089541E063E080E089
S11305600E948200089563E080E00E94640108957F
S1070570F894FFCF29
S11305744E6F204461746100446174612052656368
S109058465697665640060
S9030000FC
